{
  "contractName": "AssetsTracker",
  "abi": [
    {
      "anonymous": false,
      "inputs": [
        {
          "indexed": false,
          "name": "manufacturer",
          "type": "address"
        },
        {
          "indexed": false,
          "name": "uuid",
          "type": "string"
        },
        {
          "indexed": false,
          "name": "location",
          "type": "address"
        }
      ],
      "name": "AssetsCreate",
      "type": "event"
    },
    {
      "anonymous": false,
      "inputs": [
        {
          "indexed": false,
          "name": "from",
          "type": "address"
        },
        {
          "indexed": false,
          "name": "to",
          "type": "address"
        },
        {
          "indexed": false,
          "name": "uuid",
          "type": "string"
        }
      ],
      "name": "AssetsTransfer",
      "type": "event"
    },
    {
      "constant": false,
      "inputs": [
        {
          "name": "_name",
          "type": "string"
        },
        {
          "name": "_description",
          "type": "string"
        },
        {
          "name": "_uuid",
          "type": "string"
        }
      ],
      "name": "createAsset",
      "outputs": [],
      "payable": false,
      "stateMutability": "nonpayable",
      "type": "function"
    },
    {
      "constant": false,
      "inputs": [
        {
          "name": "_uuid",
          "type": "string"
        },
        {
          "name": "_to",
          "type": "address"
        }
      ],
      "name": "transferAssets",
      "outputs": [],
      "payable": false,
      "stateMutability": "nonpayable",
      "type": "function"
    },
    {
      "constant": true,
      "inputs": [
        {
          "name": "_uuid",
          "type": "string"
        }
      ],
      "name": "getAssetDetails",
      "outputs": [
        {
          "name": "",
          "type": "string"
        },
        {
          "name": "",
          "type": "string"
        },
        {
          "name": "",
          "type": "address"
        },
        {
          "name": "",
          "type": "address"
        }
      ],
      "payable": false,
      "stateMutability": "view",
      "type": "function"
    },
    {
      "constant": true,
      "inputs": [
        {
          "name": "_uuid",
          "type": "string"
        }
      ],
      "name": "AssetLocation",
      "outputs": [
        {
          "name": "",
          "type": "address"
        }
      ],
      "payable": false,
      "stateMutability": "view",
      "type": "function"
    }
  ],
  "bytecode": "0x608060405234801561001057600080fd5b5061135f806100206000396000f3fe608060405260043610610062576000357c0100000000000000000000000000000000000000000000000000000000900463ffffffff16806347823b1d1461006757806368fbe23e1461014f57806399b195d514610362578063de58d1561461046a575b600080fd5b34801561007357600080fd5b5061014d6004803603604081101561008a57600080fd5b81019080803590602001906401000000008111156100a757600080fd5b8201836020820111156100b957600080fd5b803590602001918460018302840111640100000000831117156100db57600080fd5b91908080601f016020809104026020016040519081016040528093929190818152602001838380828437600081840152601f19601f820116905080830192505050505050509192919290803573ffffffffffffffffffffffffffffffffffffffff169060200190929190505050610660565b005b34801561015b57600080fd5b506102156004803603602081101561017257600080fd5b810190808035906020019064010000000081111561018f57600080fd5b8201836020820111156101a157600080fd5b803590602001918460018302840111640100000000831117156101c357600080fd5b91908080601f016020809104026020016040519081016040528093929190818152602001838380828437600081840152601f19601f8201169050808301925050505050505091929192905050506109bc565b6040518080602001806020018573ffffffffffffffffffffffffffffffffffffffff1673ffffffffffffffffffffffffffffffffffffffff1681526020018473ffffffffffffffffffffffffffffffffffffffff1673ffffffffffffffffffffffffffffffffffffffff168152602001838103835287818151815260200191508051906020019080838360005b838110156102bd5780820151818401526020810190506102a2565b50505050905090810190601f1680156102ea5780820380516001836020036101000a031916815260200191505b50838103825286818151815260200191508051906020019080838360005b83811015610323578082015181840152602081019050610308565b50505050905090810190601f1680156103505780820380516001836020036101000a031916815260200191505b50965050505050505060405180910390f35b34801561036e57600080fd5b506104286004803603602081101561038557600080fd5b81019080803590602001906401000000008111156103a257600080fd5b8201836020820111156103b457600080fd5b803590602001918460018302840111640100000000831117156103d657600080fd5b91908080601f016020809104026020016040519081016040528093929190818152602001838380828437600081840152601f19601f820116905080830192505050505050509192919290505050610d03565b604051808273ffffffffffffffffffffffffffffffffffffffff1673ffffffffffffffffffffffffffffffffffffffff16815260200191505060405180910390f35b34801561047657600080fd5b5061065e6004803603606081101561048d57600080fd5b81019080803590602001906401000000008111156104aa57600080fd5b8201836020820111156104bc57600080fd5b803590602001918460018302840111640100000000831117156104de57600080fd5b91908080601f016020809104026020016040519081016040528093929190818152602001838380828437600081840152601f19601f8201169050808301925050505050505091929192908035906020019064010000000081111561054157600080fd5b82018360208201111561055357600080fd5b8035906020019184600183028401116401000000008311171561057557600080fd5b91908080601f016020809104026020016040519081016040528093929190818152602001838380828437600081840152601f19601f820116905080830192505050505050509192919290803590602001906401000000008111156105d857600080fd5b8201836020820111156105ea57600080fd5b8035906020019184600183028401116401000000008311171561060c57600080fd5b91908080601f016020809104026020016040519081016040528093929190818152602001838380828437600081840152601f19601f820116905080830192505050505050509192919290505050610d9b565b005b3373ffffffffffffffffffffffffffffffffffffffff166001836040518082805190602001908083835b6020831015156106af578051825260208201915060208101905060208303925061068a565b6001836020036101000a038019825116818451168082178552505050505050905001915050908152602001604051809103902060000160009054906101000a900473ffffffffffffffffffffffffffffffffffffffff1673ffffffffffffffffffffffffffffffffffffffff161415156107b7576040517f08c379a000000000000000000000000000000000000000000000000000000000815260040180806020018281038252602e8152602001807f596f7520617265206e6f7420617574686f726973656420746f207472616e736681526020017f657220746869732061737365747300000000000000000000000000000000000081525060400191505060405180910390fd5b60408051908101604052808273ffffffffffffffffffffffffffffffffffffffff168152602001838152506001836040518082805190602001908083835b60208310151561081a57805182526020820191506020810190506020830392506107f5565b6001836020036101000a038019825116818451168082178552505050505050905001915050908152602001604051809103902060008201518160000160006101000a81548173ffffffffffffffffffffffffffffffffffffffff021916908373ffffffffffffffffffffffffffffffffffffffff16021790555060208201518160010190805190602001906108b092919061120e565b509050507f94ce61d30d460e8c373be5258942fb86ad89a802e8bf4db509f27f8ce251e172338284604051808473ffffffffffffffffffffffffffffffffffffffff1673ffffffffffffffffffffffffffffffffffffffff1681526020018373ffffffffffffffffffffffffffffffffffffffff1673ffffffffffffffffffffffffffffffffffffffff16815260200180602001828103825283818151815260200191508051906020019080838360005b8381101561097c578082015181840152602081019050610961565b50505050905090810190601f1680156109a95780820380516001836020036101000a031916815260200191505b5094505050505060405180910390a15050565b6060806000806000856040518082805190602001908083835b6020831015156109fa57805182526020820191506020810190506020830392506109d5565b6001836020036101000a03801982511681845116808217855250505050505090500191505090815260200160405180910390206000016000866040518082805190602001908083835b602083101515610a685780518252602082019150602081019050602083039250610a43565b6001836020036101000a03801982511681845116808217855250505050505090500191505090815260200160405180910390206001016000876040518082805190602001908083835b602083101515610ad65780518252602082019150602081019050602083039250610ab1565b6001836020036101000a038019825116818451168082178552505050505050905001915050908152602001604051809103902060020160009054906101000a900473ffffffffffffffffffffffffffffffffffffffff166001886040518082805190602001908083835b602083101515610b655780518252602082019150602081019050602083039250610b40565b6001836020036101000a038019825116818451168082178552505050505050905001915050908152602001604051809103902060000160009054906101000a900473ffffffffffffffffffffffffffffffffffffffff16838054600181600116156101000203166002900480601f016020809104026020016040519081016040528092919081815260200182805460018160011615610100020316600290048015610c515780601f10610c2657610100808354040283529160200191610c51565b820191906000526020600020905b815481529060010190602001808311610c3457829003601f168201915b50505050509350828054600181600116156101000203166002900480601f016020809104026020016040519081016040528092919081815260200182805460018160011615610100020316600290048015610ced5780601f10610cc257610100808354040283529160200191610ced565b820191906000526020600020905b815481529060010190602001808311610cd057829003601f168201915b5050505050925093509350935093509193509193565b60006001826040518082805190602001908083835b602083101515610d3d5780518252602082019150602081019050602083039250610d18565b6001836020036101000a038019825116818451168082178552505050505050905001915050908152602001604051809103902060000160009054906101000a900473ffffffffffffffffffffffffffffffffffffffff169050919050565b826000826040518082805190602001908083835b602083101515610dd45780518252602082019150602081019050602083039250610daf565b6001836020036101000a03801982511681845116808217855250505050505090500191505090815260200160405180910390206000019080519060200190610e1d92919061128e565b50816000826040518082805190602001908083835b602083101515610e575780518252602082019150602081019050602083039250610e32565b6001836020036101000a03801982511681845116808217855250505050505090500191505090815260200160405180910390206001019080519060200190610ea092919061128e565b50336000826040518082805190602001908083835b602083101515610eda5780518252602082019150602081019050602083039250610eb5565b6001836020036101000a038019825116818451168082178552505050505050905001915050908152602001604051809103902060020160006101000a81548173ffffffffffffffffffffffffffffffffffffffff021916908373ffffffffffffffffffffffffffffffffffffffff16021790555060016000826040518082805190602001908083835b602083101515610f885780518252602082019150602081019050602083039250610f63565b6001836020036101000a038019825116818451168082178552505050505050905001915050908152602001604051809103902060020160146101000a81548160ff021916908315150217905550336001826040518082805190602001908083835b60208310151561100e5780518252602082019150602081019050602083039250610fe9565b6001836020036101000a038019825116818451168082178552505050505050905001915050908152602001604051809103902060000160006101000a81548173ffffffffffffffffffffffffffffffffffffffff021916908373ffffffffffffffffffffffffffffffffffffffff160217905550806001826040518082805190602001908083835b6020831015156110bb5780518252602082019150602081019050602083039250611096565b6001836020036101000a0380198251168184511680821785525050505050509050019150509081526020016040518091039020600101908051906020019061110492919061128e565b507f8ce54bdc2daeb6d98c445230323297c759a5799e574e6c176c6dc8014f305ea8338233604051808473ffffffffffffffffffffffffffffffffffffffff1673ffffffffffffffffffffffffffffffffffffffff168152602001806020018373ffffffffffffffffffffffffffffffffffffffff1673ffffffffffffffffffffffffffffffffffffffff168152602001828103825284818151815260200191508051906020019080838360005b838110156111cd5780820151818401526020810190506111b2565b50505050905090810190601f1680156111fa5780820380516001836020036101000a031916815260200191505b5094505050505060405180910390a1505050565b828054600181600116156101000203166002900490600052602060002090601f016020900481019282601f1061124f57805160ff191683800117855561127d565b8280016001018555821561127d579182015b8281111561127c578251825591602001919060010190611261565b5b50905061128a919061130e565b5090565b828054600181600116156101000203166002900490600052602060002090601f016020900481019282601f106112cf57805160ff19168380011785556112fd565b828001600101855582156112fd579182015b828111156112fc5782518255916020019190600101906112e1565b5b50905061130a919061130e565b5090565b61133091905b8082111561132c576000816000905550600101611314565b5090565b9056fea165627a7a7230582040d78abd8005d996ddafea2a5a58595df121624b2aad2ef7aece3f6bae681fd50029",
  "source": "pragma solidity 0.5.0;\n\ncontract AssetsTracker{\n\n    struct Asset{\n        string name;\n        string description;\n        address manufacturer;\n        bool initialized;\n    }\n\n    struct Tracking{\n        address location;\n        string uuid;\n    }\n\n    mapping(string => Asset) assetsStore;\n    mapping(string => Tracking) locations;\n\n    event AssetsCreate(address manufacturer, string uuid, address location);\n    event AssetsTransfer(address from, address to, string uuid);\n\n    function createAsset(string memory _name, string memory _description, string memory _uuid)public {\n        assetsStore[_uuid].name = _name;\n        assetsStore[_uuid].description = _description;\n        assetsStore[_uuid].manufacturer = msg.sender;\n        assetsStore[_uuid].initialized = true;\n        locations[_uuid].location = msg.sender;\n        locations[_uuid].uuid = _uuid;\n        emit AssetsCreate(msg.sender, _uuid, msg.sender);\n        \n    }\n\n    function transferAssets(string memory _uuid, address _to ) public{\n        require(locations[_uuid].location == msg.sender, \"You are not authorised to transfer this assets\");\n        locations[_uuid] = Tracking(_to, _uuid);\n        emit AssetsTransfer(msg.sender, _to, _uuid);\n    }\n\n    function getAssetDetails(string memory _uuid) public view returns(string memory, string memory, address, address){\n       return(assetsStore[_uuid].name, assetsStore[_uuid].description, assetsStore[_uuid].manufacturer, locations[_uuid].location);\n    }\n\n    function AssetLocation(string memory _uuid)public view returns(address){\n        return(locations[_uuid].location);\n    }\n\n}",
  "sourcePath": "/home/urjit/Documents/Dapp/SupplyChainDapp/contracts/AssetsTracker.sol",
  "compiler": {
    "name": "solc",
    "version": "0.5.0+commit.1d4f565a.Emscripten.clang"
  },
  "schemaVersion": "3.0.11",
  "updatedAt": "2019-07-05T18:27:30.697Z",
  "devdoc": {
    "methods": {}
  },
  "userdoc": {
    "methods": {}
  }
}