{
  "contractName": "AssetsTracker",
  "abi": [
    {
      "anonymous": false,
      "inputs": [
        {
          "indexed": false,
          "name": "manufacturer",
          "type": "address"
        },
        {
          "indexed": false,
          "name": "uuid",
          "type": "string"
        },
        {
          "indexed": false,
          "name": "location",
          "type": "address"
        }
      ],
      "name": "AssetsCreate",
      "type": "event"
    },
    {
      "anonymous": false,
      "inputs": [
        {
          "indexed": false,
          "name": "from",
          "type": "address"
        },
        {
          "indexed": false,
          "name": "to",
          "type": "address"
        },
        {
          "indexed": false,
          "name": "uuid",
          "type": "string"
        }
      ],
      "name": "AssetsTransfer",
      "type": "event"
    },
    {
      "constant": false,
      "inputs": [
        {
          "name": "_name",
          "type": "string"
        },
        {
          "name": "_description",
          "type": "string"
        },
        {
          "name": "_uuid",
          "type": "string"
        }
      ],
      "name": "createAsset",
      "outputs": [],
      "payable": false,
      "stateMutability": "nonpayable",
      "type": "function"
    },
    {
      "constant": false,
      "inputs": [
        {
          "name": "_uuid",
          "type": "string"
        },
        {
          "name": "_to",
          "type": "address"
        }
      ],
      "name": "transferAssets",
      "outputs": [],
      "payable": false,
      "stateMutability": "nonpayable",
      "type": "function"
    },
    {
      "constant": true,
      "inputs": [
        {
          "name": "_uuid",
          "type": "string"
        }
      ],
      "name": "getAssetDetails",
      "outputs": [
        {
          "name": "",
          "type": "string"
        },
        {
          "name": "",
          "type": "string"
        },
        {
          "name": "",
          "type": "address"
        }
      ],
      "payable": false,
      "stateMutability": "view",
      "type": "function"
    },
    {
      "constant": true,
      "inputs": [
        {
          "name": "_uuid",
          "type": "string"
        }
      ],
      "name": "AssetLocation",
      "outputs": [
        {
          "name": "",
          "type": "address"
        }
      ],
      "payable": false,
      "stateMutability": "view",
      "type": "function"
    }
  ],
  "bytecode": "0x608060405234801561001057600080fd5b50611169806100206000396000f3fe608060405260043610610062576000357c0100000000000000000000000000000000000000000000000000000000900463ffffffff16806347823b1d1461006757806368fbe23e1461014f57806399b195d51461032f578063de58d15614610437575b600080fd5b34801561007357600080fd5b5061014d6004803603604081101561008a57600080fd5b81019080803590602001906401000000008111156100a757600080fd5b8201836020820111156100b957600080fd5b803590602001918460018302840111640100000000831117156100db57600080fd5b91908080601f016020809104026020016040519081016040528093929190818152602001838380828437600081840152601f19601f820116905080830192505050505050509192919290803573ffffffffffffffffffffffffffffffffffffffff16906020019092919050505061062d565b005b34801561015b57600080fd5b506102156004803603602081101561017257600080fd5b810190808035906020019064010000000081111561018f57600080fd5b8201836020820111156101a157600080fd5b803590602001918460018302840111640100000000831117156101c357600080fd5b91908080601f016020809104026020016040519081016040528093929190818152602001838380828437600081840152601f19601f820116905080830192505050505050509192919290505050610989565b6040518080602001806020018473ffffffffffffffffffffffffffffffffffffffff1673ffffffffffffffffffffffffffffffffffffffff168152602001838103835286818151815260200191508051906020019080838360005b8381101561028b578082015181840152602081019050610270565b50505050905090810190601f1680156102b85780820380516001836020036101000a031916815260200191505b50838103825285818151815260200191508051906020019080838360005b838110156102f15780820151818401526020810190506102d6565b50505050905090810190601f16801561031e5780820380516001836020036101000a031916815260200191505b509550505050505060405180910390f35b34801561033b57600080fd5b506103f56004803603602081101561035257600080fd5b810190808035906020019064010000000081111561036f57600080fd5b82018360208201111561038157600080fd5b803590602001918460018302840111640100000000831117156103a357600080fd5b91908080601f016020809104026020016040519081016040528093929190818152602001838380828437600081840152601f19601f820116905080830192505050505050509192919290505050610c3d565b604051808273ffffffffffffffffffffffffffffffffffffffff1673ffffffffffffffffffffffffffffffffffffffff16815260200191505060405180910390f35b34801561044357600080fd5b5061062b6004803603606081101561045a57600080fd5b810190808035906020019064010000000081111561047757600080fd5b82018360208201111561048957600080fd5b803590602001918460018302840111640100000000831117156104ab57600080fd5b91908080601f016020809104026020016040519081016040528093929190818152602001838380828437600081840152601f19601f8201169050808301925050505050505091929192908035906020019064010000000081111561050e57600080fd5b82018360208201111561052057600080fd5b8035906020019184600183028401116401000000008311171561054257600080fd5b91908080601f016020809104026020016040519081016040528093929190818152602001838380828437600081840152601f19601f820116905080830192505050505050509192919290803590602001906401000000008111156105a557600080fd5b8201836020820111156105b757600080fd5b803590602001918460018302840111640100000000831117156105d957600080fd5b91908080601f016020809104026020016040519081016040528093929190818152602001838380828437600081840152601f19601f820116905080830192505050505050509192919290505050610cd5565b005b3373ffffffffffffffffffffffffffffffffffffffff166001836040518082805190602001908083835b60208310151561067c5780518252602082019150602081019050602083039250610657565b6001836020036101000a038019825116818451168082178552505050505050905001915050908152602001604051809103902060000160009054906101000a900473ffffffffffffffffffffffffffffffffffffffff1673ffffffffffffffffffffffffffffffffffffffff16141515610784576040517f08c379a000000000000000000000000000000000000000000000000000000000815260040180806020018281038252602e8152602001807f596f7520617265206e6f7420617574686f726973656420746f207472616e736681526020017f657220746869732061737365747300000000000000000000000000000000000081525060400191505060405180910390fd5b60408051908101604052808273ffffffffffffffffffffffffffffffffffffffff168152602001838152506001836040518082805190602001908083835b6020831015156107e757805182526020820191506020810190506020830392506107c2565b6001836020036101000a038019825116818451168082178552505050505050905001915050908152602001604051809103902060008201518160000160006101000a81548173ffffffffffffffffffffffffffffffffffffffff021916908373ffffffffffffffffffffffffffffffffffffffff160217905550602082015181600101908051906020019061087d929190611018565b509050507f94ce61d30d460e8c373be5258942fb86ad89a802e8bf4db509f27f8ce251e172333384604051808473ffffffffffffffffffffffffffffffffffffffff1673ffffffffffffffffffffffffffffffffffffffff1681526020018373ffffffffffffffffffffffffffffffffffffffff1673ffffffffffffffffffffffffffffffffffffffff16815260200180602001828103825283818151815260200191508051906020019080838360005b8381101561094957808201518184015260208101905061092e565b50505050905090810190601f1680156109765780820380516001836020036101000a031916815260200191505b5094505050505060405180910390a15050565b606080600080846040518082805190602001908083835b6020831015156109c557805182526020820191506020810190506020830392506109a0565b6001836020036101000a03801982511681845116808217855250505050505090500191505090815260200160405180910390206000016000856040518082805190602001908083835b602083101515610a335780518252602082019150602081019050602083039250610a0e565b6001836020036101000a03801982511681845116808217855250505050505090500191505090815260200160405180910390206001016000866040518082805190602001908083835b602083101515610aa15780518252602082019150602081019050602083039250610a7c565b6001836020036101000a038019825116818451168082178552505050505050905001915050908152602001604051809103902060020160009054906101000a900473ffffffffffffffffffffffffffffffffffffffff16828054600181600116156101000203166002900480601f016020809104026020016040519081016040528092919081815260200182805460018160011615610100020316600290048015610b8d5780601f10610b6257610100808354040283529160200191610b8d565b820191906000526020600020905b815481529060010190602001808311610b7057829003601f168201915b50505050509250818054600181600116156101000203166002900480601f016020809104026020016040519081016040528092919081815260200182805460018160011615610100020316600290048015610c295780601f10610bfe57610100808354040283529160200191610c29565b820191906000526020600020905b815481529060010190602001808311610c0c57829003601f168201915b505050505091509250925092509193909250565b60006001826040518082805190602001908083835b602083101515610c775780518252602082019150602081019050602083039250610c52565b6001836020036101000a038019825116818451168082178552505050505050905001915050908152602001604051809103902060000160009054906101000a900473ffffffffffffffffffffffffffffffffffffffff169050919050565b826000826040518082805190602001908083835b602083101515610d0e5780518252602082019150602081019050602083039250610ce9565b6001836020036101000a03801982511681845116808217855250505050505090500191505090815260200160405180910390206000019080519060200190610d57929190611098565b50816000826040518082805190602001908083835b602083101515610d915780518252602082019150602081019050602083039250610d6c565b6001836020036101000a03801982511681845116808217855250505050505090500191505090815260200160405180910390206001019080519060200190610dda929190611098565b50336000826040518082805190602001908083835b602083101515610e145780518252602082019150602081019050602083039250610def565b6001836020036101000a038019825116818451168082178552505050505050905001915050908152602001604051809103902060020160006101000a81548173ffffffffffffffffffffffffffffffffffffffff021916908373ffffffffffffffffffffffffffffffffffffffff16021790555060016000826040518082805190602001908083835b602083101515610ec25780518252602082019150602081019050602083039250610e9d565b6001836020036101000a038019825116818451168082178552505050505050905001915050908152602001604051809103902060020160146101000a81548160ff0219169083151502179055507f8ce54bdc2daeb6d98c445230323297c759a5799e574e6c176c6dc8014f305ea8338233604051808473ffffffffffffffffffffffffffffffffffffffff1673ffffffffffffffffffffffffffffffffffffffff168152602001806020018373ffffffffffffffffffffffffffffffffffffffff1673ffffffffffffffffffffffffffffffffffffffff168152602001828103825284818151815260200191508051906020019080838360005b83811015610fd7578082015181840152602081019050610fbc565b50505050905090810190601f1680156110045780820380516001836020036101000a031916815260200191505b5094505050505060405180910390a1505050565b828054600181600116156101000203166002900490600052602060002090601f016020900481019282601f1061105957805160ff1916838001178555611087565b82800160010185558215611087579182015b8281111561108657825182559160200191906001019061106b565b5b5090506110949190611118565b5090565b828054600181600116156101000203166002900490600052602060002090601f016020900481019282601f106110d957805160ff1916838001178555611107565b82800160010185558215611107579182015b828111156111065782518255916020019190600101906110eb565b5b5090506111149190611118565b5090565b61113a91905b8082111561113657600081600090555060010161111e565b5090565b9056fea165627a7a72305820495a7a94aaa1e0cba907f7cf1dc9b532d2b3c0b4181832e43ae4b83e64ba7c7a0029",
  "source": "pragma solidity 0.5.0;\n\ncontract AssetsTracker{\n\nstruct Asset{\n    string name;\n    string description;\n    address manufacturer;\n    bool initialized;\n}\n\nstruct Tracking{\n    address location;\n    string uuid;\n}\n\nmapping(string => Asset) assetsStore;\nmapping(string => Tracking) locations;\n\nevent AssetsCreate(address manufacturer, string uuid, address location);\nevent AssetsTransfer(address from, address to, string uuid);\n\nfunction createAsset(string memory _name, string memory _description, string memory _uuid)public {\n    assetsStore[_uuid].name = _name;\n    assetsStore[_uuid].description = _description;\n    assetsStore[_uuid].manufacturer = msg.sender;\n    assetsStore[_uuid].initialized = true;\n    //locations[_uuid] = Tracking(msg.sender, _uuid);\n    emit AssetsCreate(msg.sender, _uuid, msg.sender);\n}\n\nfunction transferAssets(string memory _uuid, address _to ) public{\n    require(locations[_uuid].location == msg.sender, \"You are not authorised to transfer this assets\");\n    locations[_uuid] = Tracking(_to, _uuid);\n    emit AssetsTransfer(msg.sender, msg.sender, _uuid);\n}\n\nfunction getAssetDetails(string memory _uuid) public view returns(string memory, string memory, address){\n    return(assetsStore[_uuid].name, assetsStore[_uuid].description, assetsStore[_uuid].manufacturer);\n}\n\nfunction AssetLocation(string memory _uuid)public view returns(address){\n    return(locations[_uuid].location);\n}\n\n}",
  "sourcePath": "/home/urjit/Documents/Dapp/SupplyChainDapp/contracts/AssetsTracker.sol",
  "compiler": {
    "name": "solc",
    "version": "0.5.0+commit.1d4f565a.Emscripten.clang"
  },
  "schemaVersion": "3.0.11",
  "updatedAt": "2019-07-04T09:03:15.987Z",
  "devdoc": {
    "methods": {}
  },
  "userdoc": {
    "methods": {}
  }
}